:020000040800F2
:1000000000000220052A000835080008370800080B
:10001000390800083B0800083D08000800000000FF
:100020000000000000000000000000003F08000881
:1000300041080008000000004308000845080008C7
:10004000552A0008552A0008552A0008552A000894
:10005000552A0008552A0008552A0008552A000884
:10006000552A0008552A0008552A0008552A000874
:10007000552A0008552A0008552A0008552A000864
:10008000552A0008552A0008552A0008552A000854
:10009000552A0008552A0008552A0008552A000844
:1000A000552A0008552A0008552A0008552A000834
:1000B000552A0008552A0008552A0008552A000824
:1000C000552A0008552A0008552A0008552A000814
:1000D000552A0008552A0008552A0008552A000804
:1000E0004D080008552A0008552A0008552A00081E
:1000F000552A0008552A0008552A0008552A0008E4
:10010000552A0008552A0008552A0008552A0008D3
:10011000552A0008552A0008552A0008552A0008C3
:10012000552A0008552A0008552A0008552A0008B3
:10013000552A0008552A0008552A0008552A0008A3
:10014000552A0008552A0008552A0008552A000893
:10015000552A0008552A0008552A0008552A000883
:10016000552A0008552A0008552A0008552A000873
:10017000552A0008552A0008552A0008552A000863
:10018000552A0008552A0008552A0008552A000853
:10019000552A000800000000552A0008552A0008CA
:1001A000552A0008552A0008552A0008552A000833
:1001B000552A0008552A0008552A0008552A000823
:1001C000552A0008552A0008552A0008552A000813
:0801D000552A0008552A000819
:1001D8000348044B834202D0034B03B118477047CE
:1001E8001000002010000020000000000548064B09
:1001F8001B1AD90F01EBA301491002D0034B03B11D
:100208001847704710000020100000200000000070
:1002180010B5064C237843B9FFF7DAFF044B13B146
:100228000448AFF300800123237010BD10000020A4
:1002380000000000582A000808B5044B1BB1044907
:100248000448AFF30080BDE80840CFE70000000095
:1002580014000020582A000870B50F4B0F4DAB4210
:10026800A3EB050607D0B610002455F8043B01346B
:100278009847A642F9D802F0EBFB094D094B5E1BE3
:10028800AB424FEAA60606D0002455F8043B0134D9
:100298009847A642F9D870BDA82A0008A82A0008DD
:1002A800A82A0008AC2A0008830730B547D0541E96
:1002B800002A3ED0CAB2034601E0013C39D303F814
:1002C800012B9D07F9D1032C2CD9CDB205EB0525BF
:1002D8000F2C05EB054535D9A4F1100222F00F0CBF
:1002E80003F1100EE6444FEA121C1A46C2E9005503
:1002F800C2E9025510327245F8D10CF1010214F02E
:100308000C0F03EB021204F00F0C13D0ACF1040332
:1003180023F003030433134442F8045B9342FBD1F4
:100328000CF003042CB1C9B21C4403F8011BA3420E
:10033800FBD130BD64461346002CF4D1F9E70346DF
:100348001446C0E71A46A446E0E700BF53B94AB9C5
:10035800002908BF00281CBF4FF0FF314FF0FF30C5
:1003680000F06AB9ADF1080C6DE904CE00F006F8AA
:10037800DDF804E0DDE9022304B070472DE9F04719
:10038800089D0E4604460F46002B4AD194468C45DC
:10039800B2FA82F260D942B1C2F12003974020FA42
:1003A80003F30CFA02FC1F4394404FEA1C4E1FFA59
:1003B8008CF6B7FBFEF1230C0EFB117743EA0743DB
:1003C80001FB06F098420AD91CEB030301F1FF3741
:1003D80080F01581984240F21281023963441B1A59
:1003E800A4B2B3FBFEF00EFB103344EA034400FB57
:1003F80006F6A6420AD91CEB040400F1FF3380F08C
:100408000081A64240F2FD806444023840EA01407F
:10041800A41B00211DB1D4400023C5E90043BDE859
:10042800F0878B4205D90DB1C5E9000100210846C6
:10043800F5E7B3FA83F1002946D1B34202D38242E9
:1004480000F2F580841A66EB030201201746002D9E
:10045800E5D0C5E90047E2E7002A40F09380A1EB28
:100468000C034FEA1C471FFA8CFE0121B3FBF7F679
:1004780007FB1630230C43EA00430EFB06F09842B4
:1004880008D91CEB030306F1FF3802D2984200F2A8
:10049800D08046461B1AA4B2B3FBF7F007FB103313
:1004A80044EA03440EFB00FEA64508D91CEB0404ED
:1004B80000F1FF3302D2A64500F2B6801846A4EB3D
:1004C8000E0440EA0640A5E7C1F120078B4022FA56
:1004D80007FC4CEA030C06FA01FE20FA07F426FA98
:1004E80007F344EA0E0400FA01F84FEA1C404FEA09
:1004F8001449B3FBF0FE1FFA8CF600FB1E3349EAE1
:1005080003430EFB06F9994502FA01F20BD91CEBDD
:1005180003030EF1FF3A80F08580994540F282800E
:10052800AEF1020E6344A3EB0909A4B2B9FBF0F3E0
:1005380000FB139944EA094403FB06F6A64208D9CE
:100548001CEB040403F1FF3068D2A64266D9023BD3
:10055800644443EA0E40A41BA0FB02E6B44273467F
:10056800B14652D34FD05DB1B8EB030264EB090436
:1005780004FA07F722FA01F31F43CC40C5E90074D7
:1005880000214CE7C2F1200120FA01F30CFA02FC29
:1005980026FA01F1964033434FEA1C471FFA8CFEB6
:1005A800B1FBF7F007FB1016190C41EA064100FBF6
:1005B8000EF68E4204FA02F408D91CEB010100F190
:1005C800FF382DD28E422BD902386144891B9BB249
:1005D800B1FBF7F607FB161143EA014306FB0EF1E0
:1005E800994208D91CEB030306F1FF3814D299424B
:1005F80012D9023E63445B1A46EA004136E739469F
:10060800EDE6184602E7F045ADD2BEEB020366EB15
:100618000C060138B146A6E74646ECE7034698E7DC
:100628004046D3E7D6467EE76444023847E70846A3
:100638000DE7023E63442DE7704700BF84B0134BBB
:10064800DA6C42F00402DA64DA6C02F00402009216
:10065800009ADA6C42F02002DA64DA6C02F02002C6
:100668000192019ADA6C42F00102DA64DA6C02F063
:1006780001020292029ADA6C42F00202DA64DB6C3E
:1006880003F002030393039B04B070470010024079
:1006980000B585B04BF22113ADF80C304FF0FF33A5
:1006A8000093022303AA04490978044801F0BCFF17
:1006B80005B05DF804FB00BF000000202C000020FE
:1006C80000B587B040F2EC53ADF81430012000F0CB
:1006D80059FA4FF0FF330093092302AA0549097814
:1006E800054802F073F818B1002007B05DF804FB64
:1006F8000120FAE7000000202C00002072B6FEE777
:1007080008B51148114B0360114B43600023836007
:100718000122C260036143618361C361036201F026
:100728001EFF50B90021084802F00EF938B900211F
:10073800054802F037F920B908BDFFF7DFFFFFF7DA
:10074800DDFFFFF7DBFF00BF2C0000200054004056
:10075800C285B24000B595B03822002106A8FFF73F
:10076800A3FD00200190029003900490059001F0F1
:10077800FBF8022306934FF48072099240220A92F2
:100788000D930E9304220F925522109211931293F7
:10079800139306A800F036FA80B90F2301930323B8
:1007A8000293002303930493059304210DEB0100A6
:1007B80000F0DEFC20B915B05DF804FBFFF79EFFE2
:1007C800FFF79CFF08B500F0BBF9FFF7C3FFFFF781
:1007D80035FFFFF795FF002000F0D8F80121002031
:1007E80000F000F910494FF4E1330B600020486035
:1007F80008814881888100F061F908B1FFF77EFF20
:10080800FFF746FF41F2883000F0BCF906E000200F
:1008180000F0E0F841F2883000F0B4F9FFF750FF3B
:100828000028F4D1F6E700BF80000020FEE7FEE7CD
:10083800FEE7FEE7FEE770477047704708B500F02F
:100848008FF908BD08B5002000F010F908BD0000B8
:1008580000B583B00B4B1A6E42F001021A661A6E8D
:1008680002F001020092009A9A6D42F080529A6555
:100878009B6D03F080530193019B01F0FBF803B0DB
:100888005DF804FB0010024010B59CB0044600213E
:100898001791189119911A911B91542202A8FFF7E8
:1008A80003FD2268184B9A4201D01CB010BD4023AA
:1008B800029302A800F082FD10BB144CE36C43F0D5
:1008C8000203E364E36C03F002030093009B4FF41C
:1008D80040731793122318930123199300231A9333
:1008E80004231B9317A90A4800F024FFA36D43F4BF
:1008F8000013A365A36D03F400130193019BD4E7D0
:10090800FFF7FCFED9E700BF00540040001002408A
:100918000004004830B589B01B4BDA6C42F0010284
:10092800DA64DA6C02F001020092009ADA6C42F0A2
:100938000102DA64DA6C02F001020192019ADA6DBE
:1009480042F00102DA65DB6D03F001030293029BBA
:1009580004230393022404940694012305930C258D
:1009680007950DEB05014FF0904000F0E3FE0823DA
:100978000393049407950DEB05014FF0904000F0A8
:10098800D9FE09B030BD00BF0010024030B587B0B5
:100998000F4BDA6C42F00102DA64DB6C03F00103FE
:1009A8000093009B202501950123029300240394C2
:1009B8000323049301A94FF0904000F0BBFE2246A8
:1009C80029464FF0904000F09FFF204607B030BD09
:1009D8000010024008B520214FF0904000F099FF28
:1009E800002008BD10B586B01B4BDA6C42F004023B
:1009F800DA64DB6C03F004030093009B4FF40053AC
:100A0800019302230393049341B90023029301A99C
:100A1800124800F08FFE002006B010BD04464FF4C7
:100A28008813029301A90D4800F084FE0C4B03EBD8
:100A3800C4040C49204600F07DFF0B4A00212046E3
:100A480000F070FF00220F21282001F06FF8282005
:100A580001F07CF8DFE700BF001002400008004802
:100A6800240100200D0000068B0A000808B5034B7E
:100A780003EBC00000F064FF08BD00BF24010020A4
:100A8800704708B50020FFF7FBFF08BD08B50A4A04
:100A980002600A6842600C2242614A8902614A681F
:100AA80082600A89C2608A8982614FF40042C26109
:100AB80001F06DFB08BD00BF0080004001280ED882
:100AC80038B50D469423094C03FB00442046FFF734
:100AD80021FF29462046FFF7D9FF18B938BD6FF026
:100AE800010070476FF00300F8E700BF9000002096
:100AF800104B1B680BB90120704710B504464FF422
:100B08007A70B0FBF3F30C4A1068B0FBF3F001F015
:100B180021F868B90F2C01D901200AE000222146EA
:100B28004FF0FF3001F002F8044B1C60002000E099
:100B3800012010BD040000200C0000200800002047
:100B480010B5032000F0E0FF0020FFF7D1FF10B13F
:100B58000124204610BD0446FFF77AFEF9E700009D
:100B6800034A1368034909680B441360704700BFC0
:100B78002C01002004000020014B1868704700BFBA
:100B88002C01002038B50446FFF7F6FF0546B4F1FE
:100B9800FF3F02D0044B1B681C44FFF7EDFF401BCE
:100BA800A042FAD338BD00BF04000020124BDA6817
:100BB80002F00302DB68C3F303130133032A11D0E5
:100BC8000E48B0FBF3F00C4BDB68C3F3062303FBC2
:100BD80000F0094BDB68C3F3416301335B00B0FBF2
:100BE800F3F070470648B0FBF3F0034BDB68C3F340
:100BF800062303FB00F0ECE7001002400024F40099
:100C080000366E01002800F04F8270B582B00446AD
:100C1800036813F0010F37D0A44A936803F00C035C
:100C2800D26802F003020C2B23D0082B23D0636870
:100C3800B3F5803F4ED0B3F5A02F51D09B4B1A6827
:100C480022F480321A601A6822F480221A606368DB
:100C5800002B52D0FFF790FF0546944B1B6813F406
:100C6800003F11D1FFF788FF401B6428F5D9032006
:100C780023E2032AD9D18D4B1B6813F4003F03D01C
:100C88006368002B00F01282236813F0020F5DD016
:100C9800864A936803F00C03D26802F003020C2B17
:100CA8003AD0042B3AD0E368002B75D07F4A1368FA
:100CB80043F480731360FFF75FFF05467B4B1B68A7
:100CC80013F4806F5FD1FFF757FF401B0228F5D957
:100CD8000320F2E1754A136843F480331360B6E7E2
:100CE80003F18043A3F53C331A6842F480221A606A
:100CF8001A6842F480321A60A9E7FFF73DFF0546FB
:100D08006A4B1B6813F4003FBED0FFF735FF401B4A
:100D18006428F5D90320D0E1022AC2D1634B1B68AD
:100D280013F4806F03D0E368002B00F0C1815F4AA1
:100D3800536823F0FE43216943EA016353605C4B27
:100D48001868FFF7D5FE002840F0B481236813F037
:100D5800080F4CD063699BB3544AD2F8943043F0DF
:100D68000103C2F89430FFF707FF05464F4BD3F84D
:100D7800943013F0020F3AD1FFF7FEFE401B022811
:100D8800F4D9032099E1494A536823F0FE432169C5
:100D980043EA01635360D9E7444A136823F4807334
:100DA8001360FFF7E9FE0546404B1B6813F4806F9C
:100DB800CCD0FFF7E1FE401B0228F5D903207CE1E7
:100DC8003A4AD2F8943023F00103C2F89430FFF77E
:100DD800D3FE0546354BD3F8943013F0020F06D0F6
:100DE800FFF7CAFE401B0228F4D9032065E12368F7
:100DF80013F0040F00F081802C4B9B6D13F0805F83
:100E080036D12A4B9A6D42F080529A659B6D03F059
:100E180080530193019B0125264B1B6813F4807FA7
:100E280028D0A368012B39D0052B45D01F4BD3F808
:100E3800902022F00102C3F89020D3F8902022F0ED
:100E48000402C3F89020A368002B43D0FFF794FE58
:100E58000646164BD3F8903013F0020F4CD1FFF72B
:100E68008BFE801B41F288339842F2D9032024E19B
:100E78000025D1E70F4A136843F480731360FFF726
:100E88007BFE06460B4B1B6813F4807FC9D1FFF726
:100E980073FE801B0228F5D903200EE1034AD2F81D
:100EA800903043F00103C2F89030CCE700100240C4
:100EB8000800002000700040884BD3F8902042F0D2
:100EC8000402C3F89020D3F8902042F00102C3F83E
:100ED8009020B8E7FFF750FE0646804BD3F89030D5
:100EE80013F0020F08D0FFF747FE801B41F288334A
:100EF8009842F2D90320E0E0E5B9236813F0200F07
:100F080035D0A369E3B1754AD2F8983043F00103AC
:100F1800C2F89830FFF730FE0546704BD3F898308A
:100F280013F0020F23D1FFF727FE401B0228F4D944
:100F38000320C2E0694A936D23F080539365DCE790
:100F4800664AD2F8983023F00103C2F89830FFF7C8
:100F580013FE0546614BD3F8983013F0020F06D004
:100F6800FFF70AFE401B0228F4D90320A5E0E36935
:100F7800002B00F0A180594A926802F00C020C2A5A
:100F880064D0022B13D0554A136823F08073136082
:100F9800FFF7F2FD0446514B1B6813F0007F4ED05B
:100FA800FFF7EAFD001B0228F5D9032085E04B4A2C
:100FB800136823F080731360FFF7DEFD0546474B87
:100FC8001B6813F0007F06D0FFF7D6FD401B0228F0
:100FD800F5D9032071E0414AD36841491940236A91
:100FE800606A013843EA0013A06A43EA0023206BD1
:100FF8004008013843EA4053606B4008013843EA2F
:101008004063E06A43EAC0631943D160136843F060
:1010180080731360D36843F08073D360FFF7ACFD2F
:1010280004462E4B1B6813F0007F06D1FFF7A4FD82
:10103800001B0228F5D903203FE000203DE0274AA5
:10104800D168284B0B40D360002036E0012B36D006
:10105800224BDB6803F00301226A914231D103F08D
:10106800F002616A0139B2EB011F2CD103F4FE4290
:10107800A16AB2EB012F28D103F07842E16AB2EB02
:10108800C16F24D103F4C001226B5208013AB1EBBD
:10109800425F1ED103F0C063626B5208013AB3EBA2
:1010A800426F18D1002008E001207047012004E0B9
:1010B800012002E0012000E0002002B070BD012004
:1010C800FBE70120F9E70120F7E70120F5E7012018
:1010D800F3E70120F1E70120EFE700BF001002402D
:1010E8000C809F01FCFFEEFE1E4B9B6803F00C0377
:1010F800042B33D01B4B9B6803F00C03082B2FD019
:10110800184B9B6803F00C030C2B01D00020704790
:10111800144BDA6802F00302DB68C3F303130133EC
:10112800032A11D01048B0FBF3F00E4BDB68C3F371
:10113800062303FB00F00B4BDB68C3F34163013369
:101148005B00B0FBF3F070470848B0FBF3F0054BC9
:10115800DB68C3F3062303FB00F0ECE702487047A3
:1011680002487047001002400024F40000366E0167
:10117800002800F0E680F8B50C460546744B1B685D
:1011880003F00F038B420BD2714A136823F00F034D
:101198000B431360136803F00F038B4240F0D380B6
:1011A8002E6816F001065FD06B68032B2FD0022B38
:1011B8004DD0684B1B6813F4806F00F0C680FFF7B2
:1011C80093FF654B98424DD9624A936823F0F00328
:1011D80043F08003936080265E4A936823F00303FC
:1011E80069680B439360FFF7C7FC0746594B9B6838
:1011F80003F00C036A68B3EB820F35D0FFF7BCFC31
:10120800C01B41F288339842F0D9032078E0514B53
:101218001B6813F0007F01D1012071E0FFF7C6FCC5
:101228004D4B98421AD94B4B9B6813F0F00F05D0E1
:101238002E6816F00206CFD0AB688BB9454A936882
:1012480023F0F00343F0800393608026C4E7414B0A
:101258001B6813F4003FB2D1012051E00026BBE720
:101268000026B9E70026B7E72B6813F0020F48D02D
:1012780013F0040F04D0374A936843F4E063936093
:101288002B6813F0080F06D0324A936823F47C5376
:1012980043F4E06393602F4A936823F0F003A9684E
:1012A8000B4393602A4B1B6803F00F03A34230D80B
:1012B8002B6813F0040F06D0264A936823F4E063E2
:1012C800E9680B4393602B6813F0080F07D0214A95
:1012D800936823F46053296943EAC1039360FFF7D5
:1012E80003FF1C4B9B68C3F303131C4AD35C03F036
:1012F8001F03D8401A4B18601A4B1868FFF7F8FB01
:10130800F8BD802ECED1134A936823F0F003936082
:10131800C8E70F4A136823F00F0323431360FFF74E
:101328002BFC06460A4B1B6803F00F03A342BFD0F1
:10133800FFF722FC801B41F288339842F2D9032040
:10134800DEE7012070470120DAE70120D8E700BF77
:10135800002002400010024000B4C404902A000893
:101368000C00002008000020014B1868704700BFDF
:101378000C00002008B5FFF7F7FF054B9B68C3F387
:101388000223044AD35C03F01F03D84008BD00BF02
:1013980000100240882A000808B5FFF7E5FF054B52
:1013A8009B68C3F3C223044AD35C03F01F03D840ED
:1013B80008BD00BF00100240882A0008F0B583B0BD
:1013C8000446036813F4002F6ED0354B9B6D13F061
:1013D800805F1ED1324B9A6D42F080529A659B6DA8
:1013E80003F080530193019B01262E4A136843F4AE
:1013F80080731360FFF7C0FB05462A4B1B6813F484
:10140800807F08D1FFF7B8FB401B0228F5D90325D8
:1014180002E00026E9E7002545BB214BD3F89030D0
:1014280013F4407315D0226D9A4212D01C4AD2F898
:10143800903023F44073D2F8901041F48031C2F810
:101448009010D2F8901021F48031C2F89010C2F8B0
:10145800903013F0010F10D145B9114AD2F89030ED
:1014680023F44073216D0B43C2F89030EEB10C4A5F
:10147800936D23F08053936517E0FFF77DFB0746D4
:10148800074BD3F8903013F0020FE5D1FFF774FB48
:10149800C01B41F288339842F2D90325DCE700BF2C
:1014A80000100240007000400025236813F0010F6F
:1014B80008D09F4AD2F8883023F0030361680B43B1
:1014C800C2F88830236813F0020F08D0984AD2F87F
:1014D800883023F00C03A1680B43C2F888302368D6
:1014E80013F0040F08D0924AD2F8883023F0300362
:1014F800E1680B43C2F88830236813F0080F08D05E
:101508008B4AD2F8883023F0C00321690B43C2F814
:101518008830236813F0100F08D0854AD2F8883035
:1015280023F4407361690B43C2F88830236813F0D1
:10153800200F08D07E4AD2F8883023F44063A1698E
:101548000B43C2F88830236813F0400F08D0784A5C
:10155800D2F8883023F44053E1690B43C2F888304D
:10156800236813F0800F08D0714AD2F8883023F42A
:101578004043216A0B43C2F88830236813F4807F04
:1015880008D06B4AD2F8883023F44033616A0B43A1
:10159800C2F88830236813F4003F08D0644AD2F8B0
:1015A8009C3023F00303A16A0B43C2F89C302368E4
:1015B80013F4007F08D05E4AD2F8883023F4402321
:1015C800E16A0B43C2F88830236813F4806F0CD0AB
:1015D800574AD2F8883023F44013216B0B43C2F8E2
:1015E8008830236BB3F5801F79D0236813F4006F1C
:1015F8000CD04F4AD2F8883023F44003616B0B4378
:10160800C2F88830636BB3F5800F6DD0236813F48C
:10161800805F0CD0464AD2F8883023F04073A16B23
:101628000B43C2F88830A36BB3F1807F61D0236885
:1016380013F4005F0CD03E4AD2F8883023F04063A0
:10164800E16B0B43C2F88830E36BB3F1006F55D000
:10165800236813F4804F0CD0354AD2F8883023F031
:101668004063216C0B43C2F88830236CB3F1006FE0
:1016780049D0236813F4004F0CD02D4AD2F8883093
:1016880023F04053616C0B43C2F88830636CB3F1AC
:10169800805F3DD0236813F4803F0CD0244AD2F8F1
:1016A800883023F04043A16C0B43C2F88830A36C08
:1016B800B3F1804F31D0236813F4802F0CD01C4A2B
:1016C800D2F89C3023F44013E16C0B43C2F89C30F1
:1016D800E36CB3F5001F25D0284603B0F0BDD368EE
:1016E80043F48013D36080E7D36843F48013D36056
:1016F8008CE7D36843F48013D36098E7D36843F446
:101708008013D360A4E7D36843F48013D360B0E7B1
:10171800D36843F48033D360BCE7D36843F48033A1
:10172800D360C8E7D36843F48013D360D4E700BF1D
:1017380000100240F0B583B0002362E085685E00C7
:101748000324B44025EA0405CC68B4402C438460E3
:10175800456825EA0C054C68C4F300149C402C43EA
:1017680044605FE0DD08083550F8254003F0070CB9
:101778004FEA8C0C4FF00F0E0EFA0CFE24EA0E0EF8
:101788000C6904FA0CF444EA0E0440F8254060E0C1
:10179800052400E0002404FA0EF42C430CF1020C9A
:1017A800554D45F82C40554CA568D44325EA02060A
:1017B8004F6817F4801F01D042EA05064F4DAE600E
:1017C800ED6804EA05064F6817F4001F01D042EAE5
:1017D80005064A4DEE606D6804EA05064F6817F481
:1017E800003F01D042EA0506444D6E602D682C404A
:1017F8004E6816F4803F01D042EA05043F4A14605F
:1018080001330A6832FA03F474D04FF0010C0CFA71
:1018180003FC1CEA0202F3D04C6804F00304013C08
:10182800012C8BD94C6804F00304032C0CD0C46839
:101838005D004FF0030C0CFA05FC24EA0C0C8C68D4
:10184800AC4044EA0C04C4604C6804F00304022C65
:1018580088D004684FEA430E4FF0030C0CFA0EFCD4
:1018680024EA0C0C4C6804F0030404FA0EF444EA6D
:101878000C0404604C6814F4403FC1D0204C256E21
:1018880045F001052566246E04F001040194019CCD
:101898004FEA930C0CF10205174C54F8255003F04D
:1018A800030E4FEA8E0E0F2404FA0EF425EA0405FF
:1018B800B0F1904F3FF46EAF124CA04212D004F535
:1018C8008064A04210D004F58064A0420ED004F5D4
:1018D8008064A0420CD004F58064A0423FF458AF65
:1018E800062458E7012456E7022454E7032452E764
:1018F800042450E703B0F0BD00000140000401409B
:1019080000100240000400480AB1816170478162FA
:101918007047436901EA030221EA030141EA0241EF
:101928008161704711B942600846704700234360DF
:101938000120704710B101600020704701207047F6
:1019480010B50368C3F3004203F01F030121994057
:101958005301044A9C580C4203D09950436803B180
:10196800984710BD14040140002836D13E4B1B682F
:1019780003F4C063B3F5806F08D03B4AD2F88030D7
:1019880023F48073C2F8803000207047364AD2F8BA
:10199800803023F48073C2F88030136823F4C06366
:1019A80043F400731360314B1B68322202FB03F3CC
:1019B8002F4AA2FB03239B0C013300E0013B2A4A78
:1019C800526912F4806F01D0002BF7D1264B5B6966
:1019D80013F4806F44D100207047B0F5007F08D021
:1019E800214A136823F4C06343F480631360002022
:1019F80070471D4B1B6803F4C063B3F5806F08D0B4
:101A0800194AD2F8803043F48073C2F8803000203D
:101A18007047154AD2F8803043F48073C2F880309A
:101A2800136823F4C06343F4007313600F4B1B68FF
:101A3800322202FB03F30E4AA2FB03239B0C013361
:101A480000E0013B084A526912F4806F01D0002B74
:101A5800F7D1054B5B6913F4806F03D10020704701
:101A68000320704703207047007000400C000020DE
:101A780083DE1B43024A936843F4804393607047B4
:101A880000700040002807DB00F01F024009012316
:101A98009340024A42F82030704700BF00E100E05E
:101AA800002808DB0901C9B200F1604000F5614077
:101AB80080F80013704700F00F000901C9B2014B0C
:101AC8001954704714ED00E000B500F00700C0F1AC
:101AD800070CBCF1040F28BF4FF0040C031D062BA4
:101AE8000FD9C31E4FF0FF3E0EFA0CF021EA000199
:101AF80099400EFA03FE22EA0E0241EA02005DF85E
:101B080004FB0023EEE70000074AD36823F4E063F0
:101B18001B041B0C000200F4E060034343F0BF63A6
:101B280043F40033D360704700ED00E010B504467D
:101B3800054BD868C0F30220FFF7C6FF01462046D0
:101B4800FFF7AEFF10BD00BF00ED00E008B5FFF7DE
:101B580099FF08BD0138B0F1807F0BD24FF0E02328
:101B68005861054AF02182F8231000209861072265
:101B78001A6170470120704700ED00E0026852E8E2
:101B8800003F23F4907342E800310029F6D102683F
:101B980002F1080353E8003F23F0805323F00103C8
:101BA800083242E800310029F1D1C36E012B06D07A
:101BB8002023C0F88C300023C3664367704702684F
:101BC80052E8003F23F0100342E800310029F6D123
:101BD800EEE7704770B504468368026913434269AB
:101BE8001343C269134301680868964A02401A43BE
:101BF8000A602268536823F44053E1680B4353603A
:101C0800A1692268904B9A4201D0236A19439368CC
:101C180023F06E4323F430630B4393602268D36A46
:101C280023F00F03616A0B43D3622368874A934208
:101C380026D0874A934237D0864A93424DD0864A67
:101C480093425DD0854A93426CD07F4A93427ED0BE
:101C580010227D498B4200F0B380E069B0F5004F57
:101C680000F00481082A00F26F81DFE812F03201E7
:101C7800540130016D0157016D016D016D015A016B
:101C880002F55842D2F8882002F00302032A09D844
:101C9800DFE802F0020472060122DAE70422D8E73C
:101CA8000822D6E71022D4E702F5E632D2F88820D7
:101CB80002F00C020C2A0ED8DFE802F0070D0D0D19
:101CC800090D0D0D600D0D0D0B000022C1E704225A
:101CD800BFE70822BDE71022BBE702F5E432D2F8DD
:101CE800882002F03002202A4AD005D8002A49D09C
:101CF800102A49D10422ACE7302A47D10822A8E7A4
:101D080002F5E232D2F8882002F0C002802A3FD0E1
:101D180004D8FAB3402A3FD104229AE7C02A3DD119
:101D2800082296E702F5E032D2F8882002F44072E1
:101D3800B2F5007F34D005D8A2B3B2F5807F33D195
:101D4800042286E7B2F5407F30D1082281E702F508
:101D5800C832D2F8882002F44062B2F5006F27D06A
:101D680005D83AB3B2F5806F26D1042271E7B2F5EF
:101D7800406F23D108226CE702226AE7022268E753
:101D8800022266E7002264E7102262E7102260E779
:101D980002225EE700225CE710225AE7102258E789
:101DA800022256E7002254E7102252E7102250E799
:101DB80002224EE700224CE710224AE7102248E7A9
:101DC800082A00F2B180DFE802F008AF3BAF38AF75
:101DD800AFAF05004FF4004004E0FFF7CBFA00284E
:101DE80000F0A480626A1E4B33F81220B0FBF2F3B5
:101DF800656805EB4501994200F29A80B3EB053F0F
:101E080000F29880002633463146FEF79FFA090211
:101E180041EA106100026B08C0182A46334641F1B6
:101E28000001FEF793FAA0F540720E4B9A4200F2B9
:101E380083802368D860304664E0FFF755F9CEE721
:101E48000948CFE7F369FFCF008000400038014020
:101E58000044004000480040004C00400050004052
:101E6800702A0008FFFC0F000024F400082A65D837
:101E7800DFE802F0072705642A6464640B0035482C
:101E880003E0FFF777FA00285AD0626A324B33F83A
:101E98001230B0FBF3F06268530803EB4003B3FB66
:101EA800F2F3A3F110014FF6EF7291424AD89AB2B9
:101EB80022F00F02C3F3420313432268D3600020C9
:101EC80020E0FFF769FADEE7FFF70EF9DBE72148C4
:101ED80003E0FFF74FFA002838D0626A1E4B33F848
:101EE8001230B0FBF3F0636800EB5300B0FBF3F083
:101EF800A0F110024FF6EF739A4229D8236880B2F6
:101F0800D86000200123A4F86A30A4F868300023C0
:101F18006367A36770BDFFF73FFADCE7FFF7E4F8F4
:101F2800D9E74FF40040D8E70120EBE70020E9E7C4
:101F38000120E7E70120E5E70120E3E70120E1E7E9
:101F48000020DFE70120DDE70120DBE70020D9E7FB
:101F58000120D7E70024F400702A0008836A13F0F0
:101F6800080F06D00268536823F40043816B0B43C3
:101F78005360836A13F0010F06D00268536823F494
:101F88000033C16A0B435360836A13F0020F06D013
:101F98000268536823F48033016B0B435360836AF0
:101FA80013F0040F06D00268536823F48023416BB2
:101FB8000B435360836A13F0100F06D002689368CE
:101FC80023F48053C16B0B439360836A13F0200F93
:101FD80006D00268936823F40053016C0B439360A6
:101FE800836A13F0400F0AD00268536823F4801301
:101FF800416C0B435360436CB3F5801F0BD0836A6D
:1020080013F0800F06D00268536823F40023C16CD4
:102018000B43536070470268536823F4C003816C14
:102028000B435360EBE72DE9F84305460E46174688
:102038009946DDF820802B68DC6936EA04040CBF79
:1020480001240024BC4236D1B8F1FF3FF3D0FEF79B
:1020580093FDA0EB0900404530D8B8F1000F2FD010
:102068002B681A6812F0040FE5D0802EE3D0402EBA
:10207800E1D0DA6912F0080F11D1DA6912F4006FB1
:10208800D9D04FF400621A622846FFF777FD202363
:10209800C5F89030002385F8843003200CE008242C
:1020A8001C622846FFF76AFDC5F89040002385F8B2
:1020B8008430012000E00020BDE8F8830320FBE71E
:1020C8000320F9E730B583B004460023C0F8903008
:1020D800FEF752FD05462268126812F0080F10D16B
:1020E80023681B6813F0040F28D12023C4F8883014
:1020F800C4F88C300020E066206784F8840003B0C0
:1021080030BD6FF07E430093034600224FF4001168
:102118002046FFF788FF0028E2D0226852E8003FF7
:1021280023F0800342E800310029F6D12023C4F8C7
:102138008830002384F884300320E0E76FF07E4382
:1021480000932B4600224FF480012046FFF76BFFD7
:102158000028CAD0226852E8003F23F4907342E86E
:1021680000310029F6D1226802F1080353E8003F44
:1021780023F00103083242E800310029F3D120237B
:10218800C4F88C30002384F884300320B7E778B390
:1021980010B50446D0F888300BB32423C4F888302F
:1021A8002268136823F001031360A36AE3B9204689
:1021B800FFF710FD012811D02268536823F49043DB
:1021C80053602268936823F02A0393602268136897
:1021D80043F0010313602046FFF774FF10BD80F839
:1021E8008430FFF7F6FCD8E72046FFF7B7FEDEE7B6
:1021F80001207047034AD2F8883043F47003C2F8CC
:102208008830704700ED00E003689A6912F0020F09
:1022180001D000229A6203689A6912F0010F03D173
:102228009A6942F001029A61704710B4019CC1F3A7
:10223800090141EA02411943214321F000410268A2
:102248005368640D04F4806444F07F7444F4583493
:1022580044F47F7444F0030423EA04030B435360FB
:102268005DF8044B70472DE9F041044603689E6908
:1022780016F010067CD00D4690461022DA61002632
:1022880037462368986910F0200F30D17FBBB5F12D
:10229800FF3FF6D0FEF770FCA0EB0800A84201D87B
:1022A800002DEED121684B6803F4804394F8422056
:1022B800D2B2886910F4004F02D00BB9202A0ED18F
:1022C80023689B6913F0200FDBD1FEF755FCA0EBC8
:1022D80008001928F4D946F020060127D1E74B68F1
:1022E80043F480434B60FEF747FC8046E8E70FB9AC
:1022F8002022DA6146F0040601252268936913F466
:10230800807F05D046F001064FF48071D161012528
:1023180013F4806F06D046F0080622684FF48061F7
:10232800D161012513F4007F24D046F0020623680A
:102338004FF40072DA6101252046FFF765FF226835
:10234800536823F0FF7323F48B3323F4FF7323F0D4
:1023580001035360636C33436364202384F8413082
:10236800002384F8423084F840302846BDE8F081E4
:102378000025C2E7002DF8D0DEE770B504460D460B
:10238800164623689B6913F0020F22D1324629466C
:102398002046FFF768FFF0B9B5F1FF3FF1D0FEF72F
:1023A800EBFB801BA84201D8002DEAD123689B696A
:1023B80013F0020FE5D1636C43F02003636420231C
:1023C80084F84130002384F8423084F840300120FA
:1023D80000E0002070BD0120FCE72DE9F843054628
:1023E800884617461E46DDF820902B689C6938EA17
:1023F80004040CBF01230023BB4227D14A463146BF
:102408002846FFF730FF20BBB6F1FF3FEDD0FEF7BF
:10241800B3FBA0EB0900B04201D8002EE5D12B6830
:102428009B6938EA03030CBF01230023BB42DCD1BC
:102438006B6C43F020036B64202385F84130002344
:1024480085F8423085F84030012000E00020BDE8E2
:10245800F8830120FBE770B504460D46164604E0F4
:1024680023689B6913F0200F12D023689B6913F02F
:10247800200F1BD1324629462046FFF7F4FEB8B993
:10248800FEF77AFB801BA842EAD8002DEDD1E7E7DA
:10249800636C43F020036364202384F841300023F5
:1024A80084F8423084F84030012000E0002070BDFC
:1024B8000120FCE7F8B504460E461746002518E04B
:1024C80000236364FEF758FBC01BB04200D886B9EE
:1024D8007DB923689B6913F0040F0AD1636C43F03C
:1024E80020036364202384F84130002384F84030BB
:1024F800012523689B6913F0040F2ED16DBB3A4662
:1025080031462046FFF7AFFE00B1012523689A69DE
:1025180012F0200FD6D0002DD4D19A699A6912F002
:10252800100FCDD01022DA610423636423682022BF
:10253800DA6121684B6823F0FF7323F48B3323F4AB
:10254800FF7323F001034B6084F84120002384F8D3
:10255800423084F840300125B4E72846F8BD002809
:102568005FD010B5044690F84130002B48D02423A2
:1025780084F841302268136823F00103136063680C
:10258800226823F0706313612268936823F4004380
:102598009360E368012B38D0A368226843F40443AE
:1025A8009360E368022B36D02268536823F40063F3
:1025B80053602268536843F0007343F40043536048
:1025C8002268D36823F40043D36023696269134304
:1025D800A169226843EA0123D360E369216A22687A
:1025E8000B4313602268136843F001031360002053
:1025F8006064202384F84130206384F8420010BDD1
:1026080080F84030FEF740F9B1E7A368226843F448
:1026180000439360C5E72268536843F4006353603E
:10262800C7E70120704700002DE9F04782B00F4648
:102638000A9E90F84110C9B2202940F0B78004469C
:102648009046994690F84030012B00F0B3804FF047
:10265800010A80F840A0FEF78FFA0546009019237A
:1026680052464FF400412046FFF7B7FE002840F0DD
:10267800A380212384F84130102384F842300023BA
:102688006364C4F82480A4F82A906363638D9BB2C2
:10269800FF2B1ED9FF2323854FF08073228DEAB1CB
:1026A800226898F800109162626A01326262628D53
:1026B80092B2013A92B26285228D013A92B2228593
:1026C800013241490091D2B239462046FFF7ADFDAB
:1026D80018E0638D23854FF00073DFE73A490091D6
:1026E800D2B239462046FFF7A0FD0BE0628D92B2C8
:1026F8002285002300934FF00073D2B2394620465A
:10270800FFF793FD638D9BB2002B33D02A463146E9
:102718002046FFF732FE002850D1626A23681278FB
:102728009A62636A01336362638D9BB2013B9BB219
:102738006385238D013B9BB22385628D92B2002A6B
:10274800E0D0002BDED100953346002280212046C0
:10275800FFF743FEA0BB638D9BB2FF2BC6D9FF22B8
:102768002285002300934FF0807339462046FFF7F7
:102778005CFDC7E72A4631462046FFF76CFE08BBDA
:1027880023682022DA6121684B6823F0FF7323F461
:102798008B3323F4FF7323F001034B6084F841204B
:1027A800002384F8423084F8403000E0022002B070
:1027B800BDE8F0870220FAE70120F8E70120F6E7F4
:1027C8000120F4E70120F2E7002000802DE9F0471E
:1027D80082B00F460A9E90F84110C9B2202940F0F5
:1027E800A28004469046994690F84030012B00F0AC
:1027F8009E804FF0010A80F840A0FEF7BDF905461B
:102808000090192352464FF400412046FFF7E5FD9A
:10281800002840F08E80222384F84130102384F869
:10282800423000236364C4F82480A4F82A906363C8
:10283800638D9BB2FF2B0AD9FF222285414B00935F
:102848004FF0807339462046FFF7EFFC18E0628DA1
:1028580092B222853B4B00934FF00073D2B23946B7
:102868002046FFF7E2FC0BE0628D92B2228500233E
:1028780000934FF00073D2B239462046FFF7D5FCDB
:10288800638D9BB2002B32D02A4631462046FFF793
:1028980011FE00284FD123685A6A636A1A70636A66
:1028A80001336362228D013A92B22285638D9BB215
:1028B800013B9BB26385638D9BB2002BE0D0002A5D
:1028C800DED10095334680212046FFF786FDA0BB68
:1028D800638D9BB2FF2BC7D9FF222285002300936B
:1028E8004FF0807339462046FFF79FFCC8E72A4619
:1028F80031462046FFF7AFFD08BB23682022DA6186
:1029080021684B6823F0FF7323F48B3323F4FF73A0
:1029180023F001034B6084F84120002384F84230FF
:1029280084F8403000E0022002B0BDE8F0870220C1
:10293800FAE70120F8E70120F6E70120F4E7012093
:10294800F2E700BF00240080034690F84120D2B28D
:10295800202A23D190F84020012A21D0012280F892
:102968004020242280F841200068026822F00102F9
:1029780002601868026822F48052026018680268CF
:102988001143016019680A6842F001020A602022B6
:1029980083F84120002083F84000704702207047E8
:1029A80002207047034690F84120D2B2202A21D154
:1029B80090F84020012A1FD0012280F840202422CC
:1029C80080F841200068026822F00102026018685D
:1029D800026822F4706242EA0122026019680A68F9
:1029E80042F001020A60202283F84120002083F887
:1029F8004000704702207047022070470D48854606
:102A0800FFF7F8FB0C480D490D4A002302E0D458A3
:102A1800C4500433C4188C42F9D30A4A0A4C002320
:102A280001E013600432A242FBD3FDF715FCFDF769
:102A3800C9FEFEE700000220000000201000002070
:102A4800B02A00081000002030010020FEE7000036
:102A5800F8B500BFF8BC08BC9E467047F8B500BF83
:082A6800F8BC08BC9E46704753
:102A7000010002000400060008000A000C0010001B
:102A8000200040008000000100000000010203045B
:102A9000000000000000000001020304060708090E
:082AA000E4D8FF7F01000000F3
:042AA80041020008DF
:042AAC001902000803
:102AB000C400000001000000100000000024F40029
:0400000508002A05C0
:00000001FF
